{
  "contractName": "ArtToken",
  "abi": [
    {
      "inputs": [],
      "stateMutability": "nonpayable",
      "type": "constructor"
    },
    {
      "anonymous": false,
      "inputs": [
        {
          "indexed": true,
          "internalType": "address",
          "name": "owner",
          "type": "address"
        },
        {
          "indexed": true,
          "internalType": "address",
          "name": "approved",
          "type": "address"
        },
        {
          "indexed": true,
          "internalType": "uint256",
          "name": "tokenId",
          "type": "uint256"
        }
      ],
      "name": "Approval",
      "type": "event"
    },
    {
      "anonymous": false,
      "inputs": [
        {
          "indexed": true,
          "internalType": "address",
          "name": "owner",
          "type": "address"
        },
        {
          "indexed": true,
          "internalType": "address",
          "name": "operator",
          "type": "address"
        },
        {
          "indexed": false,
          "internalType": "bool",
          "name": "approved",
          "type": "bool"
        }
      ],
      "name": "ApprovalForAll",
      "type": "event"
    },
    {
      "anonymous": false,
      "inputs": [
        {
          "indexed": true,
          "internalType": "address",
          "name": "from",
          "type": "address"
        },
        {
          "indexed": true,
          "internalType": "address",
          "name": "to",
          "type": "address"
        },
        {
          "indexed": true,
          "internalType": "uint256",
          "name": "tokenId",
          "type": "uint256"
        }
      ],
      "name": "Transfer",
      "type": "event"
    },
    {
      "inputs": [
        {
          "internalType": "uint256",
          "name": "",
          "type": "uint256"
        }
      ],
      "name": "allTokens",
      "outputs": [
        {
          "internalType": "uint256",
          "name": "tokenId",
          "type": "uint256"
        },
        {
          "internalType": "string",
          "name": "name",
          "type": "string"
        },
        {
          "internalType": "string",
          "name": "tokenURI",
          "type": "string"
        },
        {
          "internalType": "address payable",
          "name": "mintedBy",
          "type": "address"
        },
        {
          "internalType": "address payable",
          "name": "currentOwner",
          "type": "address"
        },
        {
          "internalType": "address payable",
          "name": "previousOwner",
          "type": "address"
        },
        {
          "internalType": "uint256",
          "name": "price",
          "type": "uint256"
        },
        {
          "internalType": "bool",
          "name": "forSale",
          "type": "bool"
        }
      ],
      "stateMutability": "view",
      "type": "function",
      "constant": true
    },
    {
      "inputs": [
        {
          "internalType": "address",
          "name": "to",
          "type": "address"
        },
        {
          "internalType": "uint256",
          "name": "tokenId",
          "type": "uint256"
        }
      ],
      "name": "approve",
      "outputs": [],
      "stateMutability": "nonpayable",
      "type": "function"
    },
    {
      "inputs": [],
      "name": "artCounter",
      "outputs": [
        {
          "internalType": "uint256",
          "name": "",
          "type": "uint256"
        }
      ],
      "stateMutability": "view",
      "type": "function",
      "constant": true
    },
    {
      "inputs": [
        {
          "internalType": "address",
          "name": "owner",
          "type": "address"
        }
      ],
      "name": "balanceOf",
      "outputs": [
        {
          "internalType": "uint256",
          "name": "",
          "type": "uint256"
        }
      ],
      "stateMutability": "view",
      "type": "function",
      "constant": true
    },
    {
      "inputs": [],
      "name": "baseURI",
      "outputs": [
        {
          "internalType": "string",
          "name": "",
          "type": "string"
        }
      ],
      "stateMutability": "view",
      "type": "function",
      "constant": true
    },
    {
      "inputs": [],
      "name": "collectionName",
      "outputs": [
        {
          "internalType": "string",
          "name": "",
          "type": "string"
        }
      ],
      "stateMutability": "view",
      "type": "function",
      "constant": true
    },
    {
      "inputs": [],
      "name": "collectionNameSymbol",
      "outputs": [
        {
          "internalType": "string",
          "name": "",
          "type": "string"
        }
      ],
      "stateMutability": "view",
      "type": "function",
      "constant": true
    },
    {
      "inputs": [
        {
          "internalType": "uint256",
          "name": "tokenId",
          "type": "uint256"
        }
      ],
      "name": "getApproved",
      "outputs": [
        {
          "internalType": "address",
          "name": "",
          "type": "address"
        }
      ],
      "stateMutability": "view",
      "type": "function",
      "constant": true
    },
    {
      "inputs": [
        {
          "internalType": "address",
          "name": "owner",
          "type": "address"
        },
        {
          "internalType": "address",
          "name": "operator",
          "type": "address"
        }
      ],
      "name": "isApprovedForAll",
      "outputs": [
        {
          "internalType": "bool",
          "name": "",
          "type": "bool"
        }
      ],
      "stateMutability": "view",
      "type": "function",
      "constant": true
    },
    {
      "inputs": [],
      "name": "name",
      "outputs": [
        {
          "internalType": "string",
          "name": "",
          "type": "string"
        }
      ],
      "stateMutability": "view",
      "type": "function",
      "constant": true
    },
    {
      "inputs": [
        {
          "internalType": "uint256",
          "name": "tokenId",
          "type": "uint256"
        }
      ],
      "name": "ownerOf",
      "outputs": [
        {
          "internalType": "address",
          "name": "",
          "type": "address"
        }
      ],
      "stateMutability": "view",
      "type": "function",
      "constant": true
    },
    {
      "inputs": [
        {
          "internalType": "address",
          "name": "from",
          "type": "address"
        },
        {
          "internalType": "address",
          "name": "to",
          "type": "address"
        },
        {
          "internalType": "uint256",
          "name": "tokenId",
          "type": "uint256"
        }
      ],
      "name": "safeTransferFrom",
      "outputs": [],
      "stateMutability": "nonpayable",
      "type": "function"
    },
    {
      "inputs": [
        {
          "internalType": "address",
          "name": "from",
          "type": "address"
        },
        {
          "internalType": "address",
          "name": "to",
          "type": "address"
        },
        {
          "internalType": "uint256",
          "name": "tokenId",
          "type": "uint256"
        },
        {
          "internalType": "bytes",
          "name": "_data",
          "type": "bytes"
        }
      ],
      "name": "safeTransferFrom",
      "outputs": [],
      "stateMutability": "nonpayable",
      "type": "function"
    },
    {
      "inputs": [
        {
          "internalType": "address",
          "name": "operator",
          "type": "address"
        },
        {
          "internalType": "bool",
          "name": "approved",
          "type": "bool"
        }
      ],
      "name": "setApprovalForAll",
      "outputs": [],
      "stateMutability": "nonpayable",
      "type": "function"
    },
    {
      "inputs": [
        {
          "internalType": "bytes4",
          "name": "interfaceId",
          "type": "bytes4"
        }
      ],
      "name": "supportsInterface",
      "outputs": [
        {
          "internalType": "bool",
          "name": "",
          "type": "bool"
        }
      ],
      "stateMutability": "view",
      "type": "function",
      "constant": true
    },
    {
      "inputs": [],
      "name": "symbol",
      "outputs": [
        {
          "internalType": "string",
          "name": "",
          "type": "string"
        }
      ],
      "stateMutability": "view",
      "type": "function",
      "constant": true
    },
    {
      "inputs": [
        {
          "internalType": "uint256",
          "name": "index",
          "type": "uint256"
        }
      ],
      "name": "tokenByIndex",
      "outputs": [
        {
          "internalType": "uint256",
          "name": "",
          "type": "uint256"
        }
      ],
      "stateMutability": "view",
      "type": "function",
      "constant": true
    },
    {
      "inputs": [
        {
          "internalType": "string",
          "name": "",
          "type": "string"
        }
      ],
      "name": "tokenNameExits",
      "outputs": [
        {
          "internalType": "bool",
          "name": "",
          "type": "bool"
        }
      ],
      "stateMutability": "view",
      "type": "function",
      "constant": true
    },
    {
      "inputs": [
        {
          "internalType": "address",
          "name": "owner",
          "type": "address"
        },
        {
          "internalType": "uint256",
          "name": "index",
          "type": "uint256"
        }
      ],
      "name": "tokenOfOwnerByIndex",
      "outputs": [
        {
          "internalType": "uint256",
          "name": "",
          "type": "uint256"
        }
      ],
      "stateMutability": "view",
      "type": "function",
      "constant": true
    },
    {
      "inputs": [
        {
          "internalType": "uint256",
          "name": "tokenId",
          "type": "uint256"
        }
      ],
      "name": "tokenURI",
      "outputs": [
        {
          "internalType": "string",
          "name": "",
          "type": "string"
        }
      ],
      "stateMutability": "view",
      "type": "function",
      "constant": true
    },
    {
      "inputs": [
        {
          "internalType": "string",
          "name": "",
          "type": "string"
        }
      ],
      "name": "tokenURIExits",
      "outputs": [
        {
          "internalType": "bool",
          "name": "",
          "type": "bool"
        }
      ],
      "stateMutability": "view",
      "type": "function",
      "constant": true
    },
    {
      "inputs": [],
      "name": "totalSupply",
      "outputs": [
        {
          "internalType": "uint256",
          "name": "",
          "type": "uint256"
        }
      ],
      "stateMutability": "view",
      "type": "function",
      "constant": true
    },
    {
      "inputs": [
        {
          "internalType": "address",
          "name": "from",
          "type": "address"
        },
        {
          "internalType": "address",
          "name": "to",
          "type": "address"
        },
        {
          "internalType": "uint256",
          "name": "tokenId",
          "type": "uint256"
        }
      ],
      "name": "transferFrom",
      "outputs": [],
      "stateMutability": "nonpayable",
      "type": "function"
    },
    {
      "inputs": [
        {
          "internalType": "string",
          "name": "_name",
          "type": "string"
        },
        {
          "internalType": "string",
          "name": "_tokenURI",
          "type": "string"
        },
        {
          "internalType": "uint256",
          "name": "_price",
          "type": "uint256"
        },
        {
          "internalType": "bool",
          "name": "_sale",
          "type": "bool"
        }
      ],
      "name": "mint",
      "outputs": [],
      "stateMutability": "nonpayable",
      "type": "function"
    },
    {
      "inputs": [],
      "name": "getTotalSupply",
      "outputs": [
        {
          "internalType": "uint256",
          "name": "",
          "type": "uint256"
        }
      ],
      "stateMutability": "view",
      "type": "function",
      "constant": true
    },
    {
      "inputs": [
        {
          "internalType": "uint256",
          "name": "id",
          "type": "uint256"
        }
      ],
      "name": "getTokenById",
      "outputs": [
        {
          "components": [
            {
              "internalType": "uint256",
              "name": "tokenId",
              "type": "uint256"
            },
            {
              "internalType": "string",
              "name": "name",
              "type": "string"
            },
            {
              "internalType": "string",
              "name": "tokenURI",
              "type": "string"
            },
            {
              "internalType": "address payable",
              "name": "mintedBy",
              "type": "address"
            },
            {
              "internalType": "address payable",
              "name": "currentOwner",
              "type": "address"
            },
            {
              "internalType": "address payable",
              "name": "previousOwner",
              "type": "address"
            },
            {
              "internalType": "uint256",
              "name": "price",
              "type": "uint256"
            },
            {
              "internalType": "bool",
              "name": "forSale",
              "type": "bool"
            }
          ],
          "internalType": "struct ArtToken.token",
          "name": "",
          "type": "tuple"
        }
      ],
      "stateMutability": "view",
      "type": "function",
      "constant": true
    },
    {
      "inputs": [
        {
          "internalType": "uint256",
          "name": "_id",
          "type": "uint256"
        },
        {
          "internalType": "uint256",
          "name": "newPrice",
          "type": "uint256"
        }
      ],
      "name": "changeTokenPrice",
      "outputs": [],
      "stateMutability": "nonpayable",
      "type": "function"
    },
    {
      "inputs": [
        {
          "internalType": "uint256",
          "name": "_id",
          "type": "uint256"
        },
        {
          "internalType": "bool",
          "name": "sale",
          "type": "bool"
        }
      ],
      "name": "setSaleSaleState",
      "outputs": [],
      "stateMutability": "nonpayable",
      "type": "function"
    },
    {
      "inputs": [
        {
          "internalType": "uint256",
          "name": "_id",
          "type": "uint256"
        }
      ],
      "name": "buyToken",
      "outputs": [],
      "stateMutability": "payable",
      "type": "function",
      "payable": true
    }
  ],
  "bytecode": "0x60806040523480156200001157600080fd5b506040518060400160405280601381526020017f417274546f6b656e20436f6c6c656374696f6e000000000000000000000000008152506040518060400160405280600281526020017f4154000000000000000000000000000000000000000000000000000000000000815250620000966301ffc9a760e01b6200016860201b60201c565b8160069080519060200190620000ae9291906200038c565b508060079080519060200190620000c79291906200038c565b50620000e06380ac58cd60e01b6200016860201b60201c565b620000f8635b5e139f60e01b6200016860201b60201c565b6200011063780e9d6360e01b6200016860201b60201c565b5050620001226200024060201b60201c565b600a9080519060200190620001399291906200038c565b506200014a620002e660201b60201c565b600b9080519060200190620001619291906200038c565b50620004b0565b63ffffffff60e01b817bffffffffffffffffffffffffffffffffffffffffffffffffffffffff19161415620001d4576040517f08c379a0000000000000000000000000000000000000000000000000000000008152600401620001cb906200047d565b60405180910390fd5b6001600080837bffffffffffffffffffffffffffffffffffffffffffffffffffffffff19167bffffffffffffffffffffffffffffffffffffffffffffffffffffffff1916815260200190815260200160002060006101000a81548160ff02191690831515021790555050565b606060068054600181600116156101000203166002900480601f016020809104026020016040519081016040528092919081815260200182805460018160011615610100020316600290048015620002dc5780601f10620002b057610100808354040283529160200191620002dc565b820191906000526020600020905b815481529060010190602001808311620002be57829003601f168201915b5050505050905090565b606060078054600181600116156101000203166002900480601f016020809104026020016040519081016040528092919081815260200182805460018160011615610100020316600290048015620003825780601f10620003565761010080835404028352916020019162000382565b820191906000526020600020905b8154815290600101906020018083116200036457829003601f168201915b5050505050905090565b828054600181600116156101000203166002900490600052602060002090601f016020900481019282601f10620003cf57805160ff191683800117855562000400565b8280016001018555821562000400579182015b82811115620003ff578251825591602001919060010190620003e2565b5b5090506200040f919062000413565b5090565b6200043891905b80821115620004345760008160009055506001016200041a565b5090565b90565b60006200044a601c836200049f565b91507f4552433136353a20696e76616c696420696e74657266616365206964000000006000830152602082019050919050565b6000602082019050818103600083015262000498816200043b565b9050919050565b600082825260208201905092915050565b61506d80620004c06000396000f3fe6080604052600436106101c25760003560e01c80636c0360eb116100f7578063a1d3981e11610095578063c4e41b2211610064578063c4e41b2214610696578063c87b56dd146106c1578063e5326ab1146106fe578063e985e9c514610729576101c2565b8063a1d3981e146105dc578063a22cb46514610619578063a9ff382214610642578063b88d4fde1461066d576101c2565b80637bdc60d9116100d15780637bdc60d91461050e578063896656a71461054b5780638a09b5e11461058857806395d89b41146105b1576101c2565b80636c0360eb1461047b5780636f9507f9146104a657806370a08231146104d1576101c2565b80632d296bf1116101645780634f6ccce71161013e5780634f6ccce71461039457806362e8e8ac146103d1578063634282af146103fa5780636352211e1461043e576101c2565b80632d296bf1146103125780632f745c591461032e57806342842e0e1461036b576101c2565b8063095ea7b3116101a0578063095ea7b31461026c57806318160ddd146102955780631e478ea5146102c057806323b872dd146102e9576101c2565b806301ffc9a7146101c757806306fdde0314610204578063081812fc1461022f575b600080fd5b3480156101d357600080fd5b506101ee60048036036101e99190810190613ea7565b610766565b6040516101fb9190614a50565b60405180910390f35b34801561021057600080fd5b506102196107cd565b6040516102269190614a8d565b60405180910390f35b34801561023b57600080fd5b5061025660048036036102519190810190613fd5565b61086f565b60405161026391906149e9565b60405180910390f35b34801561027857600080fd5b50610293600480360361028e9190810190613e6b565b6108f4565b005b3480156102a157600080fd5b506102aa610a0c565b6040516102b79190614d11565b60405180910390f35b3480156102cc57600080fd5b506102e760048036036102e29190810190613ef9565b610a1d565b005b3480156102f557600080fd5b50610310600480360361030b9190810190613d65565b610e34565b005b61032c60048036036103279190810190613fd5565b610e94565b005b34801561033a57600080fd5b5061035560048036036103509190810190613e6b565b61140c565b6040516103629190614d11565b60405180910390f35b34801561037757600080fd5b50610392600480360361038d9190810190613d65565b611467565b005b3480156103a057600080fd5b506103bb60048036036103b69190810190613fd5565b611487565b6040516103c89190614d11565b60405180910390f35b3480156103dd57600080fd5b506103f860048036036103f3919081019061403a565b6114aa565b005b34801561040657600080fd5b50610421600480360361041c9190810190613fd5565b611939565b604051610435989796959493929190614d2c565b60405180910390f35b34801561044a57600080fd5b5061046560048036036104609190810190613fd5565b611b1e565b60405161047291906149e9565b60405180910390f35b34801561048757600080fd5b50610490611b55565b60405161049d9190614a8d565b60405180910390f35b3480156104b257600080fd5b506104bb611bf7565b6040516104c89190614a6b565b60405180910390f35b3480156104dd57600080fd5b506104f860048036036104f39190810190613d00565b611c95565b6040516105059190614d11565b60405180910390f35b34801561051a57600080fd5b5061053560048036036105309190810190613fd5565b611d54565b6040516105429190614cef565b60405180910390f35b34801561055757600080fd5b50610572600480360361056d9190810190613f94565b612009565b60405161057f9190614a50565b60405180910390f35b34801561059457600080fd5b506105af60048036036105aa9190810190613ffe565b61203f565b005b3480156105bd57600080fd5b506105c66124d4565b6040516105d39190614a8d565b60405180910390f35b3480156105e857600080fd5b5061060360048036036105fe9190810190613f94565b612576565b6040516106109190614a50565b60405180910390f35b34801561062557600080fd5b50610640600480360361063b9190810190613e2f565b6125ac565b005b34801561064e57600080fd5b5061065761272d565b6040516106649190614d11565b60405180910390f35b34801561067957600080fd5b50610694600480360361068f9190810190613db4565b612733565b005b3480156106a257600080fd5b506106ab612795565b6040516106b89190614d11565b60405180910390f35b3480156106cd57600080fd5b506106e860048036036106e39190810190613fd5565b61279f565b6040516106f59190614a8d565b60405180910390f35b34801561070a57600080fd5b50610713612922565b6040516107209190614a6b565b60405180910390f35b34801561073557600080fd5b50610750600480360361074b9190810190613d29565b6129c0565b60405161075d9190614a50565b60405180910390f35b6000806000837bffffffffffffffffffffffffffffffffffffffffffffffffffffffff19167bffffffffffffffffffffffffffffffffffffffffffffffffffffffff1916815260200190815260200160002060009054906101000a900460ff169050919050565b606060068054600181600116156101000203166002900480601f0160208091040260200160405190810160405280929190818152602001828054600181600116156101000203166002900480156108655780601f1061083a57610100808354040283529160200191610865565b820191906000526020600020905b81548152906001019060200180831161084857829003601f168201915b5050505050905090565b600061087a82612a54565b6108b9576040517f08c379a00000000000000000000000000000000000000000000000000000000081526004016108b090614c0f565b60405180910390fd5b6004600083815260200190815260200160002060009054906101000a900473ffffffffffffffffffffffffffffffffffffffff169050919050565b60006108ff82611b1e565b90508073ffffffffffffffffffffffffffffffffffffffff168373ffffffffffffffffffffffffffffffffffffffff161415610970576040517f08c379a000000000000000000000000000000000000000000000000000000000815260040161096790614c8f565b60405180910390fd5b8073ffffffffffffffffffffffffffffffffffffffff1661098f612a71565b73ffffffffffffffffffffffffffffffffffffffff1614806109be57506109bd816109b8612a71565b6129c0565b5b6109fd576040517f08c379a00000000000000000000000000000000000000000000000000000000081526004016109f490614b8f565b60405180910390fd5b610a078383612a79565b505050565b6000610a186002612b32565b905090565b600073ffffffffffffffffffffffffffffffffffffffff163373ffffffffffffffffffffffffffffffffffffffff161415610a5757600080fd5b600c60008154809291906001019190505550610a74600c54612a54565b15610a7e57600080fd5b600f8484604051610a909291906149ac565b908152602001604051809103902060009054906101000a900460ff1615610ab657600080fd5b600e8686604051610ac89291906149ac565b908152602001604051809103902060009054906101000a900460ff1615610aee57600080fd5b610afa33600c54612b47565b610b4a600c5485858080601f016020809104026020016040519081016040528093929190818152602001838380828437600081840152601f19601f82011690508083019250505050505050612cd5565b6001600f8585604051610b5e9291906149ac565b908152602001604051809103902060006101000a81548160ff0219169083151502179055506001600e8787604051610b979291906149ac565b908152602001604051809103902060006101000a81548160ff021916908315150217905550610bc46139f7565b604051806101000160405280600c54815260200188888080601f016020809104026020016040519081016040528093929190818152602001838380828437600081840152601f19601f82011690508083019250505050505050815260200186868080601f016020809104026020016040519081016040528093929190818152602001838380828437600081840152601f19601f8201169050808301925050505050505081526020013373ffffffffffffffffffffffffffffffffffffffff1681526020013373ffffffffffffffffffffffffffffffffffffffff168152602001600073ffffffffffffffffffffffffffffffffffffffff168152602001848152602001831515815250905080600d6000600c548152602001908152602001600020600082015181600001556020820151816001019080519060200190610d0b929190613a80565b506040820151816002019080519060200190610d28929190613a80565b5060608201518160030160006101000a81548173ffffffffffffffffffffffffffffffffffffffff021916908373ffffffffffffffffffffffffffffffffffffffff16021790555060808201518160040160006101000a81548173ffffffffffffffffffffffffffffffffffffffff021916908373ffffffffffffffffffffffffffffffffffffffff16021790555060a08201518160050160006101000a81548173ffffffffffffffffffffffffffffffffffffffff021916908373ffffffffffffffffffffffffffffffffffffffff16021790555060c0820151816006015560e08201518160070160006101000a81548160ff02191690831515021790555090505050505050505050565b610e45610e3f612a71565b82612d49565b610e84576040517f08c379a0000000000000000000000000000000000000000000000000000000008152600401610e7b90614caf565b60405180910390fd5b610e8f838383612e27565b505050565b600073ffffffffffffffffffffffffffffffffffffffff163373ffffffffffffffffffffffffffffffffffffffff161415610ece57600080fd5b610ed781612a54565b610ee057600080fd5b610ee86139f7565b600d60008381526020019081526020016000206040518061010001604052908160008201548152602001600182018054600181600116156101000203166002900480601f016020809104026020016040519081016040528092919081815260200182805460018160011615610100020316600290048015610faa5780601f10610f7f57610100808354040283529160200191610faa565b820191906000526020600020905b815481529060010190602001808311610f8d57829003601f168201915b50505050508152602001600282018054600181600116156101000203166002900480601f01602080910402602001604051908101604052809291908181526020018280546001816001161561010002031660029004801561104c5780601f106110215761010080835404028352916020019161104c565b820191906000526020600020905b81548152906001019060200180831161102f57829003601f168201915b505050505081526020016003820160009054906101000a900473ffffffffffffffffffffffffffffffffffffffff1673ffffffffffffffffffffffffffffffffffffffff1673ffffffffffffffffffffffffffffffffffffffff1681526020016004820160009054906101000a900473ffffffffffffffffffffffffffffffffffffffff1673ffffffffffffffffffffffffffffffffffffffff1673ffffffffffffffffffffffffffffffffffffffff1681526020016005820160009054906101000a900473ffffffffffffffffffffffffffffffffffffffff1673ffffffffffffffffffffffffffffffffffffffff1673ffffffffffffffffffffffffffffffffffffffff168152602001600682015481526020016007820160009054906101000a900460ff1615151515815250509050806080015173ffffffffffffffffffffffffffffffffffffffff163373ffffffffffffffffffffffffffffffffffffffff1614156111bb57600080fd5b8060c001513410156111cc57600080fd5b8060e001516111da57600080fd5b6111e981608001513384612e27565b6000816080015190508073ffffffffffffffffffffffffffffffffffffffff166108fc349081150290604051600060405180830381858888f19350505050158015611238573d6000803e3d6000fd5b5081608001518260a0019073ffffffffffffffffffffffffffffffffffffffff16908173ffffffffffffffffffffffffffffffffffffffff168152505033826080019073ffffffffffffffffffffffffffffffffffffffff16908173ffffffffffffffffffffffffffffffffffffffff168152505081600d60008581526020019081526020016000206000820151816000015560208201518160010190805190602001906112e7929190613a80565b506040820151816002019080519060200190611304929190613a80565b5060608201518160030160006101000a81548173ffffffffffffffffffffffffffffffffffffffff021916908373ffffffffffffffffffffffffffffffffffffffff16021790555060808201518160040160006101000a81548173ffffffffffffffffffffffffffffffffffffffff021916908373ffffffffffffffffffffffffffffffffffffffff16021790555060a08201518160050160006101000a81548173ffffffffffffffffffffffffffffffffffffffff021916908373ffffffffffffffffffffffffffffffffffffffff16021790555060c0820151816006015560e08201518160070160006101000a81548160ff021916908315150217905550905050505050565b600061145f82600160008673ffffffffffffffffffffffffffffffffffffffff1673ffffffffffffffffffffffffffffffffffffffff16815260200190815260200160002061303e90919063ffffffff16565b905092915050565b61148283838360405180602001604052806000815250612733565b505050565b60008061149e83600261305890919063ffffffff16565b50905080915050919050565b6114b382612a54565b6114bc57600080fd5b600073ffffffffffffffffffffffffffffffffffffffff163373ffffffffffffffffffffffffffffffffffffffff1614156114f657600080fd5b6114fe6139f7565b600d60008481526020019081526020016000206040518061010001604052908160008201548152602001600182018054600181600116156101000203166002900480601f0160208091040260200160405190810160405280929190818152602001828054600181600116156101000203166002900480156115c05780601f10611595576101008083540402835291602001916115c0565b820191906000526020600020905b8154815290600101906020018083116115a357829003601f168201915b50505050508152602001600282018054600181600116156101000203166002900480601f0160208091040260200160405190810160405280929190818152602001828054600181600116156101000203166002900480156116625780601f1061163757610100808354040283529160200191611662565b820191906000526020600020905b81548152906001019060200180831161164557829003601f168201915b505050505081526020016003820160009054906101000a900473ffffffffffffffffffffffffffffffffffffffff1673ffffffffffffffffffffffffffffffffffffffff1673ffffffffffffffffffffffffffffffffffffffff1681526020016004820160009054906101000a900473ffffffffffffffffffffffffffffffffffffffff1673ffffffffffffffffffffffffffffffffffffffff1673ffffffffffffffffffffffffffffffffffffffff1681526020016005820160009054906101000a900473ffffffffffffffffffffffffffffffffffffffff1673ffffffffffffffffffffffffffffffffffffffff1673ffffffffffffffffffffffffffffffffffffffff168152602001600682015481526020016007820160009054906101000a900460ff16151515158152505090503373ffffffffffffffffffffffffffffffffffffffff16816080015173ffffffffffffffffffffffffffffffffffffffff16146117d057600080fd5b818160c001818152505080600d6000858152602001908152602001600020600082015181600001556020820151816001019080519060200190611814929190613a80565b506040820151816002019080519060200190611831929190613a80565b5060608201518160030160006101000a81548173ffffffffffffffffffffffffffffffffffffffff021916908373ffffffffffffffffffffffffffffffffffffffff16021790555060808201518160040160006101000a81548173ffffffffffffffffffffffffffffffffffffffff021916908373ffffffffffffffffffffffffffffffffffffffff16021790555060a08201518160050160006101000a81548173ffffffffffffffffffffffffffffffffffffffff021916908373ffffffffffffffffffffffffffffffffffffffff16021790555060c0820151816006015560e08201518160070160006101000a81548160ff021916908315150217905550905050505050565b600d602052806000526040600020600091509050806000015490806001018054600181600116156101000203166002900480601f0160208091040260200160405190810160405280929190818152602001828054600181600116156101000203166002900480156119eb5780601f106119c0576101008083540402835291602001916119eb565b820191906000526020600020905b8154815290600101906020018083116119ce57829003601f168201915b505050505090806002018054600181600116156101000203166002900480601f016020809104026020016040519081016040528092919081815260200182805460018160011615610100020316600290048015611a895780601f10611a5e57610100808354040283529160200191611a89565b820191906000526020600020905b815481529060010190602001808311611a6c57829003601f168201915b5050505050908060030160009054906101000a900473ffffffffffffffffffffffffffffffffffffffff16908060040160009054906101000a900473ffffffffffffffffffffffffffffffffffffffff16908060050160009054906101000a900473ffffffffffffffffffffffffffffffffffffffff16908060060154908060070160009054906101000a900460ff16905088565b6000611b4e8260405180606001604052806029815260200161500f6029913960026130879092919063ffffffff16565b9050919050565b606060098054600181600116156101000203166002900480601f016020809104026020016040519081016040528092919081815260200182805460018160011615610100020316600290048015611bed5780601f10611bc257610100808354040283529160200191611bed565b820191906000526020600020905b815481529060010190602001808311611bd057829003601f168201915b5050505050905090565b600b8054600181600116156101000203166002900480601f016020809104026020016040519081016040528092919081815260200182805460018160011615610100020316600290048015611c8d5780601f10611c6257610100808354040283529160200191611c8d565b820191906000526020600020905b815481529060010190602001808311611c7057829003601f168201915b505050505081565b60008073ffffffffffffffffffffffffffffffffffffffff168273ffffffffffffffffffffffffffffffffffffffff161415611d06576040517f08c379a0000000000000000000000000000000000000000000000000000000008152600401611cfd90614baf565b60405180910390fd5b611d4d600160008473ffffffffffffffffffffffffffffffffffffffff1673ffffffffffffffffffffffffffffffffffffffff1681526020019081526020016000206130a6565b9050919050565b611d5c6139f7565b611d6582612a54565b611d6e57600080fd5b600d60008381526020019081526020016000206040518061010001604052908160008201548152602001600182018054600181600116156101000203166002900480601f016020809104026020016040519081016040528092919081815260200182805460018160011615610100020316600290048015611e305780601f10611e0557610100808354040283529160200191611e30565b820191906000526020600020905b815481529060010190602001808311611e1357829003601f168201915b50505050508152602001600282018054600181600116156101000203166002900480601f016020809104026020016040519081016040528092919081815260200182805460018160011615610100020316600290048015611ed25780601f10611ea757610100808354040283529160200191611ed2565b820191906000526020600020905b815481529060010190602001808311611eb557829003601f168201915b505050505081526020016003820160009054906101000a900473ffffffffffffffffffffffffffffffffffffffff1673ffffffffffffffffffffffffffffffffffffffff1673ffffffffffffffffffffffffffffffffffffffff1681526020016004820160009054906101000a900473ffffffffffffffffffffffffffffffffffffffff1673ffffffffffffffffffffffffffffffffffffffff1673ffffffffffffffffffffffffffffffffffffffff1681526020016005820160009054906101000a900473ffffffffffffffffffffffffffffffffffffffff1673ffffffffffffffffffffffffffffffffffffffff1673ffffffffffffffffffffffffffffffffffffffff168152602001600682015481526020016007820160009054906101000a900460ff1615151515815250509050919050565b600e818051602081018201805184825260208301602085012081835280955050505050506000915054906101000a900460ff1681565b61204882612a54565b61205157600080fd5b600073ffffffffffffffffffffffffffffffffffffffff163373ffffffffffffffffffffffffffffffffffffffff16141561208b57600080fd5b6120936139f7565b600d60008481526020019081526020016000206040518061010001604052908160008201548152602001600182018054600181600116156101000203166002900480601f0160208091040260200160405190810160405280929190818152602001828054600181600116156101000203166002900480156121555780601f1061212a57610100808354040283529160200191612155565b820191906000526020600020905b81548152906001019060200180831161213857829003601f168201915b50505050508152602001600282018054600181600116156101000203166002900480601f0160208091040260200160405190810160405280929190818152602001828054600181600116156101000203166002900480156121f75780601f106121cc576101008083540402835291602001916121f7565b820191906000526020600020905b8154815290600101906020018083116121da57829003601f168201915b505050505081526020016003820160009054906101000a900473ffffffffffffffffffffffffffffffffffffffff1673ffffffffffffffffffffffffffffffffffffffff1673ffffffffffffffffffffffffffffffffffffffff1681526020016004820160009054906101000a900473ffffffffffffffffffffffffffffffffffffffff1673ffffffffffffffffffffffffffffffffffffffff1673ffffffffffffffffffffffffffffffffffffffff1681526020016005820160009054906101000a900473ffffffffffffffffffffffffffffffffffffffff1673ffffffffffffffffffffffffffffffffffffffff1673ffffffffffffffffffffffffffffffffffffffff168152602001600682015481526020016007820160009054906101000a900460ff16151515158152505090503373ffffffffffffffffffffffffffffffffffffffff16816080015173ffffffffffffffffffffffffffffffffffffffff161461236557600080fd5b818160e001901515908115158152505080600d60008581526020019081526020016000206000820151816000015560208201518160010190805190602001906123af929190613a80565b5060408201518160020190805190602001906123cc929190613a80565b5060608201518160030160006101000a81548173ffffffffffffffffffffffffffffffffffffffff021916908373ffffffffffffffffffffffffffffffffffffffff16021790555060808201518160040160006101000a81548173ffffffffffffffffffffffffffffffffffffffff021916908373ffffffffffffffffffffffffffffffffffffffff16021790555060a08201518160050160006101000a81548173ffffffffffffffffffffffffffffffffffffffff021916908373ffffffffffffffffffffffffffffffffffffffff16021790555060c0820151816006015560e08201518160070160006101000a81548160ff021916908315150217905550905050505050565b606060078054600181600116156101000203166002900480601f01602080910402602001604051908101604052809291908181526020018280546001816001161561010002031660029004801561256c5780601f106125415761010080835404028352916020019161256c565b820191906000526020600020905b81548152906001019060200180831161254f57829003601f168201915b5050505050905090565b600f818051602081018201805184825260208301602085012081835280955050505050506000915054906101000a900460ff1681565b6125b4612a71565b73ffffffffffffffffffffffffffffffffffffffff168273ffffffffffffffffffffffffffffffffffffffff161415612622576040517f08c379a000000000000000000000000000000000000000000000000000000000815260040161261990614b2f565b60405180910390fd5b806005600061262f612a71565b73ffffffffffffffffffffffffffffffffffffffff1673ffffffffffffffffffffffffffffffffffffffff16815260200190815260200160002060008473ffffffffffffffffffffffffffffffffffffffff1673ffffffffffffffffffffffffffffffffffffffff16815260200190815260200160002060006101000a81548160ff0219169083151502179055508173ffffffffffffffffffffffffffffffffffffffff166126dc612a71565b73ffffffffffffffffffffffffffffffffffffffff167f17307eab39ab6107e8899845ad3d59bd9653f200f220920489ca2b5937696c31836040516127219190614a50565b60405180910390a35050565b600c5481565b61274461273e612a71565b83612d49565b612783576040517f08c379a000000000000000000000000000000000000000000000000000000000815260040161277a90614caf565b60405180910390fd5b61278f848484846130bb565b50505050565b6000600c54905090565b60606127aa82612a54565b6127e9576040517f08c379a00000000000000000000000000000000000000000000000000000000081526004016127e090614c6f565b60405180910390fd5b6060600860008481526020019081526020016000208054600181600116156101000203166002900480601f0160208091040260200160405190810160405280929190818152602001828054600181600116156101000203166002900480156128925780601f1061286757610100808354040283529160200191612892565b820191906000526020600020905b81548152906001019060200180831161287557829003601f168201915b5050505050905060606128a3611b55565b90506000815114156128b957819250505061291d565b6000825111156128ee5780826040516020016128d69291906149c5565b6040516020818303038152906040529250505061291d565b806128f885613117565b6040516020016129099291906149c5565b604051602081830303815290604052925050505b919050565b600a8054600181600116156101000203166002900480601f0160208091040260200160405190810160405280929190818152602001828054600181600116156101000203166002900480156129b85780601f1061298d576101008083540402835291602001916129b8565b820191906000526020600020905b81548152906001019060200180831161299b57829003601f168201915b505050505081565b6000600560008473ffffffffffffffffffffffffffffffffffffffff1673ffffffffffffffffffffffffffffffffffffffff16815260200190815260200160002060008373ffffffffffffffffffffffffffffffffffffffff1673ffffffffffffffffffffffffffffffffffffffff16815260200190815260200160002060009054906101000a900460ff16905092915050565b6000612a6a82600261324790919063ffffffff16565b9050919050565b600033905090565b816004600083815260200190815260200160002060006101000a81548173ffffffffffffffffffffffffffffffffffffffff021916908373ffffffffffffffffffffffffffffffffffffffff160217905550808273ffffffffffffffffffffffffffffffffffffffff16612aec83611b1e565b73ffffffffffffffffffffffffffffffffffffffff167f8c5be1e5ebec7d5bd14f71427d1e84f3dd0314c0f7b2291e5b200ac8c7c3b92560405160405180910390a45050565b6000612b4082600001613261565b9050919050565b600073ffffffffffffffffffffffffffffffffffffffff168273ffffffffffffffffffffffffffffffffffffffff161415612bb7576040517f08c379a0000000000000000000000000000000000000000000000000000000008152600401612bae90614bef565b60405180910390fd5b612bc081612a54565b15612c00576040517f08c379a0000000000000000000000000000000000000000000000000000000008152600401612bf790614aef565b60405180910390fd5b612c0c60008383613272565b612c5d81600160008573ffffffffffffffffffffffffffffffffffffffff1673ffffffffffffffffffffffffffffffffffffffff16815260200190815260200160002061327790919063ffffffff16565b50612c74818360026132919092919063ffffffff16565b50808273ffffffffffffffffffffffffffffffffffffffff16600073ffffffffffffffffffffffffffffffffffffffff167fddf252ad1be2c89b69c2b068fc378daa952ba7f163c4a11628f55a4df523b3ef60405160405180910390a45050565b612cde82612a54565b612d1d576040517f08c379a0000000000000000000000000000000000000000000000000000000008152600401612d1490614c2f565b60405180910390fd5b80600860008481526020019081526020016000209080519060200190612d44929190613b00565b505050565b6000612d5482612a54565b612d93576040517f08c379a0000000000000000000000000000000000000000000000000000000008152600401612d8a90614b6f565b60405180910390fd5b6000612d9e83611b1e565b90508073ffffffffffffffffffffffffffffffffffffffff168473ffffffffffffffffffffffffffffffffffffffff161480612e0d57508373ffffffffffffffffffffffffffffffffffffffff16612df58461086f565b73ffffffffffffffffffffffffffffffffffffffff16145b80612e1e5750612e1d81856129c0565b5b91505092915050565b8273ffffffffffffffffffffffffffffffffffffffff16612e4782611b1e565b73ffffffffffffffffffffffffffffffffffffffff1614612e9d576040517f08c379a0000000000000000000000000000000000000000000000000000000008152600401612e9490614c4f565b60405180910390fd5b600073ffffffffffffffffffffffffffffffffffffffff168273ffffffffffffffffffffffffffffffffffffffff161415612f0d576040517f08c379a0000000000000000000000000000000000000000000000000000000008152600401612f0490614b0f565b60405180910390fd5b612f18838383613272565b612f23600082612a79565b612f7481600160008673ffffffffffffffffffffffffffffffffffffffff1673ffffffffffffffffffffffffffffffffffffffff1681526020019081526020016000206132c690919063ffffffff16565b50612fc681600160008573ffffffffffffffffffffffffffffffffffffffff1673ffffffffffffffffffffffffffffffffffffffff16815260200190815260200160002061327790919063ffffffff16565b50612fdd818360026132919092919063ffffffff16565b50808273ffffffffffffffffffffffffffffffffffffffff168473ffffffffffffffffffffffffffffffffffffffff167fddf252ad1be2c89b69c2b068fc378daa952ba7f163c4a11628f55a4df523b3ef60405160405180910390a4505050565b600061304d83600001836132e0565b60001c905092915050565b60008060008061306b866000018661334d565b915091508160001c8160001c8090509350935050509250929050565b600061309a846000018460001b846133d0565b60001c90509392505050565b60006130b482600001613461565b9050919050565b6130c6848484612e27565b6130d284848484613472565b613111576040517f08c379a000000000000000000000000000000000000000000000000000000000815260040161310890614acf565b60405180910390fd5b50505050565b6060600082141561315f576040518060400160405280600181526020017f30000000000000000000000000000000000000000000000000000000000000008152509050613242565b600082905060005b60008214613189578080600101915050600a828161318157fe5b049150613167565b6060816040519080825280601f01601f1916602001820160405280156131be5781602001600182028038833980820191505090505b50905060006001830390508593505b6000841461323a57600a84816131df57fe5b0660300160f81b828280600190039350815181106131f957fe5b60200101907effffffffffffffffffffffffffffffffffffffffffffffffffffffffffffff1916908160001a905350600a848161323257fe5b0493506131cd565b819450505050505b919050565b6000613259836000018360001b6135d6565b905092915050565b600081600001805490509050919050565b505050565b6000613289836000018360001b6135f9565b905092915050565b60006132bd846000018460001b8473ffffffffffffffffffffffffffffffffffffffff1660001b613669565b90509392505050565b60006132d8836000018360001b613745565b905092915050565b60008183600001805490501161332b576040517f08c379a000000000000000000000000000000000000000000000000000000000815260040161332290614aaf565b60405180910390fd5b82600001828154811061333a57fe5b9060005260206000200154905092915050565b60008082846000018054905011613399576040517f08c379a000000000000000000000000000000000000000000000000000000000815260040161339090614bcf565b60405180910390fd5b60008460000184815481106133aa57fe5b906000526020600020906002020190508060000154816001015492509250509250929050565b60008084600101600085815260200190815260200160002054905060008114158390613432576040517f08c379a00000000000000000000000000000000000000000000000000000000081526004016134299190614a8d565b60405180910390fd5b5084600001600182038154811061344557fe5b9060005260206000209060020201600101549150509392505050565b600081600001805490509050919050565b60006134938473ffffffffffffffffffffffffffffffffffffffff1661382d565b6134a057600190506135ce565b606061356763150b7a0260e01b6134b5612a71565b8887876040516024016134cb9493929190614a04565b604051602081830303815290604052907bffffffffffffffffffffffffffffffffffffffffffffffffffffffff19166020820180517bffffffffffffffffffffffffffffffffffffffffffffffffffffffff8381831617835250505050604051806060016040528060328152602001614fdd603291398773ffffffffffffffffffffffffffffffffffffffff166138409092919063ffffffff16565b905060008180602001905161357f9190810190613ed0565b905063150b7a0260e01b7bffffffffffffffffffffffffffffffffffffffffffffffffffffffff1916817bffffffffffffffffffffffffffffffffffffffffffffffffffffffff191614925050505b949350505050565b600080836001016000848152602001908152602001600020541415905092915050565b60006136058383613858565b61365e578260000182908060018154018082558091505060019003906000526020600020016000909190919091505582600001805490508360010160008481526020019081526020016000208190555060019050613663565b600090505b92915050565b60008084600101600085815260200190815260200160002054905060008114156137105784600001604051806040016040528086815260200185815250908060018154018082558091505060019003906000526020600020906002020160009091909190915060008201518160000155602082015181600101555050846000018054905085600101600086815260200190815260200160002081905550600191505061373e565b8285600001600183038154811061372357fe5b90600052602060002090600202016001018190555060009150505b9392505050565b60008083600101600084815260200190815260200160002054905060008114613821576000600182039050600060018660000180549050039050600086600001828154811061379057fe5b90600052602060002001549050808760000184815481106137ad57fe5b90600052602060002001819055506001830187600101600083815260200190815260200160002081905550866000018054806137e557fe5b60019003818190600052602060002001600090559055866001016000878152602001908152602001600020600090556001945050505050613827565b60009150505b92915050565b600080823b905060008111915050919050565b606061384f848460008561387b565b90509392505050565b600080836001016000848152602001908152602001600020541415905092915050565b6060824710156138c0576040517f08c379a00000000000000000000000000000000000000000000000000000000081526004016138b790614b4f565b60405180910390fd5b6138c98561382d565b613908576040517f08c379a00000000000000000000000000000000000000000000000000000000081526004016138ff90614ccf565b60405180910390fd5b600060608673ffffffffffffffffffffffffffffffffffffffff1685876040516139329190614995565b60006040518083038185875af1925050503d806000811461396f576040519150601f19603f3d011682016040523d82523d6000602084013e613974565b606091505b5091509150613984828286613990565b92505050949350505050565b606083156139a0578290506139f0565b6000835111156139b35782518084602001fd5b816040517f08c379a00000000000000000000000000000000000000000000000000000000081526004016139e79190614a8d565b60405180910390fd5b9392505050565b604051806101000160405280600081526020016060815260200160608152602001600073ffffffffffffffffffffffffffffffffffffffff168152602001600073ffffffffffffffffffffffffffffffffffffffff168152602001600073ffffffffffffffffffffffffffffffffffffffff168152602001600081526020016000151581525090565b828054600181600116156101000203166002900490600052602060002090601f016020900481019282601f10613ac157805160ff1916838001178555613aef565b82800160010185558215613aef579182015b82811115613aee578251825591602001919060010190613ad3565b5b509050613afc9190613b80565b5090565b828054600181600116156101000203166002900490600052602060002090601f016020900481019282601f10613b4157805160ff1916838001178555613b6f565b82800160010185558215613b6f579182015b82811115613b6e578251825591602001919060010190613b53565b5b509050613b7c9190613b80565b5090565b613ba291905b80821115613b9e576000816000905550600101613b86565b5090565b90565b600081359050613bb481614f80565b92915050565b600081359050613bc981614f97565b92915050565b600081359050613bde81614fae565b92915050565b600081519050613bf381614fae565b92915050565b600082601f830112613c0a57600080fd5b8135613c1d613c1882614de5565b614db8565b91508082526020830160208301858383011115613c3957600080fd5b613c44838284614f2d565b50505092915050565b60008083601f840112613c5f57600080fd5b8235905067ffffffffffffffff811115613c7857600080fd5b602083019150836001820283011115613c9057600080fd5b9250929050565b600082601f830112613ca857600080fd5b8135613cbb613cb682614e11565b614db8565b91508082526020830160208301858383011115613cd757600080fd5b613ce2838284614f2d565b50505092915050565b600081359050613cfa81614fc5565b92915050565b600060208284031215613d1257600080fd5b6000613d2084828501613ba5565b91505092915050565b60008060408385031215613d3c57600080fd5b6000613d4a85828601613ba5565b9250506020613d5b85828601613ba5565b9150509250929050565b600080600060608486031215613d7a57600080fd5b6000613d8886828701613ba5565b9350506020613d9986828701613ba5565b9250506040613daa86828701613ceb565b9150509250925092565b60008060008060808587031215613dca57600080fd5b6000613dd887828801613ba5565b9450506020613de987828801613ba5565b9350506040613dfa87828801613ceb565b925050606085013567ffffffffffffffff811115613e1757600080fd5b613e2387828801613bf9565b91505092959194509250565b60008060408385031215613e4257600080fd5b6000613e5085828601613ba5565b9250506020613e6185828601613bba565b9150509250929050565b60008060408385031215613e7e57600080fd5b6000613e8c85828601613ba5565b9250506020613e9d85828601613ceb565b9150509250929050565b600060208284031215613eb957600080fd5b6000613ec784828501613bcf565b91505092915050565b600060208284031215613ee257600080fd5b6000613ef084828501613be4565b91505092915050565b60008060008060008060808789031215613f1257600080fd5b600087013567ffffffffffffffff811115613f2c57600080fd5b613f3889828a01613c4d565b9650965050602087013567ffffffffffffffff811115613f5757600080fd5b613f6389828a01613c4d565b94509450506040613f7689828a01613ceb565b9250506060613f8789828a01613bba565b9150509295509295509295565b600060208284031215613fa657600080fd5b600082013567ffffffffffffffff811115613fc057600080fd5b613fcc84828501613c97565b91505092915050565b600060208284031215613fe757600080fd5b6000613ff584828501613ceb565b91505092915050565b6000806040838503121561401157600080fd5b600061401f85828601613ceb565b925050602061403085828601613bba565b9150509250929050565b6000806040838503121561404d57600080fd5b600061405b85828601613ceb565b925050602061406c85828601613ceb565b9150509250929050565b61407f81614eb9565b82525050565b61408e81614eb9565b82525050565b61409d81614ea7565b82525050565b6140ac81614ecb565b82525050565b6140bb81614ecb565b82525050565b60006140cc82614e3d565b6140d68185614e5e565b93506140e6818560208601614f3c565b6140ef81614f6f565b840191505092915050565b600061410582614e3d565b61410f8185614e6f565b935061411f818560208601614f3c565b80840191505092915050565b60006141378385614e9c565b9350614144838584614f2d565b82840190509392505050565b600061415b82614e53565b6141658185614e8b565b9350614175818560208601614f3c565b61417e81614f6f565b840191505092915050565b600061419482614e53565b61419e8185614e9c565b93506141ae818560208601614f3c565b80840191505092915050565b60006141c582614e48565b6141cf8185614e7a565b93506141df818560208601614f3c565b6141e881614f6f565b840191505092915050565b60006141fe82614e48565b6142088185614e8b565b9350614218818560208601614f3c565b61422181614f6f565b840191505092915050565b6000614239602283614e8b565b91507f456e756d657261626c655365743a20696e646578206f7574206f6620626f756e60008301527f64730000000000000000000000000000000000000000000000000000000000006020830152604082019050919050565b600061429f603283614e8b565b91507f4552433732313a207472616e7366657220746f206e6f6e20455243373231526560008301527f63656976657220696d706c656d656e74657200000000000000000000000000006020830152604082019050919050565b6000614305601c83614e8b565b91507f4552433732313a20746f6b656e20616c7265616479206d696e746564000000006000830152602082019050919050565b6000614345602483614e8b565b91507f4552433732313a207472616e7366657220746f20746865207a65726f2061646460008301527f72657373000000000000000000000000000000000000000000000000000000006020830152604082019050919050565b60006143ab601983614e8b565b91507f4552433732313a20617070726f766520746f2063616c6c6572000000000000006000830152602082019050919050565b60006143eb602683614e8b565b91507f416464726573733a20696e73756666696369656e742062616c616e636520666f60008301527f722063616c6c00000000000000000000000000000000000000000000000000006020830152604082019050919050565b6000614451602c83614e8b565b91507f4552433732313a206f70657261746f7220717565727920666f72206e6f6e657860008301527f697374656e7420746f6b656e00000000000000000000000000000000000000006020830152604082019050919050565b60006144b7603883614e8b565b91507f4552433732313a20617070726f76652063616c6c6572206973206e6f74206f7760008301527f6e6572206e6f7220617070726f76656420666f7220616c6c00000000000000006020830152604082019050919050565b600061451d602a83614e8b565b91507f4552433732313a2062616c616e636520717565727920666f7220746865207a6560008301527f726f2061646472657373000000000000000000000000000000000000000000006020830152604082019050919050565b6000614583602283614e8b565b91507f456e756d657261626c654d61703a20696e646578206f7574206f6620626f756e60008301527f64730000000000000000000000000000000000000000000000000000000000006020830152604082019050919050565b60006145e9602083614e8b565b91507f4552433732313a206d696e7420746f20746865207a65726f20616464726573736000830152602082019050919050565b6000614629602c83614e8b565b91507f4552433732313a20617070726f76656420717565727920666f72206e6f6e657860008301527f697374656e7420746f6b656e00000000000000000000000000000000000000006020830152604082019050919050565b600061468f602c83614e8b565b91507f4552433732314d657461646174613a2055524920736574206f66206e6f6e657860008301527f697374656e7420746f6b656e00000000000000000000000000000000000000006020830152604082019050919050565b60006146f5602983614e8b565b91507f4552433732313a207472616e73666572206f6620746f6b656e2074686174206960008301527f73206e6f74206f776e00000000000000000000000000000000000000000000006020830152604082019050919050565b600061475b602f83614e8b565b91507f4552433732314d657461646174613a2055524920717565727920666f72206e6f60008301527f6e6578697374656e7420746f6b656e00000000000000000000000000000000006020830152604082019050919050565b60006147c1602183614e8b565b91507f4552433732313a20617070726f76616c20746f2063757272656e74206f776e6560008301527f72000000000000000000000000000000000000000000000000000000000000006020830152604082019050919050565b6000614827603183614e8b565b91507f4552433732313a207472616e736665722063616c6c6572206973206e6f74206f60008301527f776e6572206e6f7220617070726f7665640000000000000000000000000000006020830152604082019050919050565b600061488d601d83614e8b565b91507f416464726573733a2063616c6c20746f206e6f6e2d636f6e74726163740000006000830152602082019050919050565b6000610100830160008301516148d96000860182614977565b50602083015184820360208601526148f182826141ba565b9150506040830151848203604086015261490b82826141ba565b91505060608301516149206060860182614076565b5060808301516149336080860182614076565b5060a083015161494660a0860182614076565b5060c083015161495960c0860182614977565b5060e083015161496c60e08601826140a3565b508091505092915050565b61498081614f23565b82525050565b61498f81614f23565b82525050565b60006149a182846140fa565b915081905092915050565b60006149b982848661412b565b91508190509392505050565b60006149d18285614189565b91506149dd8284614189565b91508190509392505050565b60006020820190506149fe6000830184614094565b92915050565b6000608082019050614a196000830187614085565b614a266020830186614094565b614a336040830185614986565b8181036060830152614a4581846140c1565b905095945050505050565b6000602082019050614a6560008301846140b2565b92915050565b60006020820190508181036000830152614a8581846141f3565b905092915050565b60006020820190508181036000830152614aa78184614150565b905092915050565b60006020820190508181036000830152614ac88161422c565b9050919050565b60006020820190508181036000830152614ae881614292565b9050919050565b60006020820190508181036000830152614b08816142f8565b9050919050565b60006020820190508181036000830152614b2881614338565b9050919050565b60006020820190508181036000830152614b488161439e565b9050919050565b60006020820190508181036000830152614b68816143de565b9050919050565b60006020820190508181036000830152614b8881614444565b9050919050565b60006020820190508181036000830152614ba8816144aa565b9050919050565b60006020820190508181036000830152614bc881614510565b9050919050565b60006020820190508181036000830152614be881614576565b9050919050565b60006020820190508181036000830152614c08816145dc565b9050919050565b60006020820190508181036000830152614c288161461c565b9050919050565b60006020820190508181036000830152614c4881614682565b9050919050565b60006020820190508181036000830152614c68816146e8565b9050919050565b60006020820190508181036000830152614c888161474e565b9050919050565b60006020820190508181036000830152614ca8816147b4565b9050919050565b60006020820190508181036000830152614cc88161481a565b9050919050565b60006020820190508181036000830152614ce881614880565b9050919050565b60006020820190508181036000830152614d0981846148c0565b905092915050565b6000602082019050614d266000830184614986565b92915050565b600061010082019050614d42600083018b614986565b8181036020830152614d54818a6141f3565b90508181036040830152614d6881896141f3565b9050614d776060830188614085565b614d846080830187614085565b614d9160a0830186614085565b614d9e60c0830185614986565b614dab60e08301846140b2565b9998505050505050505050565b6000604051905081810181811067ffffffffffffffff82111715614ddb57600080fd5b8060405250919050565b600067ffffffffffffffff821115614dfc57600080fd5b601f19601f8301169050602081019050919050565b600067ffffffffffffffff821115614e2857600080fd5b601f19601f8301169050602081019050919050565b600081519050919050565b600081519050919050565b600081519050919050565b600082825260208201905092915050565b600081905092915050565b600082825260208201905092915050565b600082825260208201905092915050565b600081905092915050565b6000614eb282614f03565b9050919050565b6000614ec482614f03565b9050919050565b60008115159050919050565b60007fffffffff0000000000000000000000000000000000000000000000000000000082169050919050565b600073ffffffffffffffffffffffffffffffffffffffff82169050919050565b6000819050919050565b82818337600083830152505050565b60005b83811015614f5a578082015181840152602081019050614f3f565b83811115614f69576000848401525b50505050565b6000601f19601f8301169050919050565b614f8981614ea7565b8114614f9457600080fd5b50565b614fa081614ecb565b8114614fab57600080fd5b50565b614fb781614ed7565b8114614fc257600080fd5b50565b614fce81614f23565b8114614fd957600080fd5b5056fe4552433732313a207472616e7366657220746f206e6f6e20455243373231526563656976657220696d706c656d656e7465724552433732313a206f776e657220717565727920666f72206e6f6e6578697374656e7420746f6b656ea264697066735822122001d3dcead60d0206cdc17b31e60e3790350b7b58f299a371cf8df6dfeaa5543564736f6c63430006020033",
  "source": "// SPDX-License-Identifier: MIT\npragma solidity >=0.6.2 <0.8.0;\npragma experimental ABIEncoderV2;\n\nimport \"./ERC721.sol\";\n\ncontract ArtToken is ERC721 {\n\n\n    string public collectionName;\n    // this contract's token symbol\n    string public collectionNameSymbol;\n    // total number of crypto boys minted\n    uint256 public artCounter;\n\n    struct token {\n        uint256 tokenId; \n        string name; \n        string tokenURI; \n        address payable mintedBy; \n        address payable currentOwner; \n        address payable previousOwner; \n        uint256 price; \n        bool forSale; \n    }\n\n    mapping(uint256 => token) public allTokens; \n    mapping(string => bool) public tokenNameExits; \n    mapping(string => bool) public tokenURIExits; \n\n\n    constructor() ERC721(\"ArtToken Collection\" , \"AT\") public {\n        collectionName = name(); \n        collectionNameSymbol= symbol();\n    }\n\n    function mint(string calldata _name , string calldata _tokenURI, uint256 _price, bool _sale ) external {\n        require(msg.sender != address(0)); \n\n        artCounter ++;\n        \n        require( !_exists(artCounter) );\n        require (! tokenURIExits[_tokenURI]);\n        require (! tokenNameExits[_name] );\n\n        _mint(msg.sender, artCounter); \n        _setTokenURI(artCounter, _tokenURI); \n\n        tokenURIExits[_tokenURI] = true; \n        tokenNameExits[_name] = true; \n\n        token memory newArtToken = token(\n            artCounter, \n            _name,\n            _tokenURI,\n            msg.sender, \n            msg.sender,\n            address(0),\n            _price, \n            _sale\n        );\n\n        allTokens[artCounter] = newArtToken;\n\n    }\n\n    function getTotalSupply() public view returns(uint256) {\n        return artCounter;\n    }\n\n    function getTokenById(uint256 id) public view returns(token memory) {\n        require (_exists(id));\n        return allTokens[id];\n    }\n\n    function changeTokenPrice(uint256 _id , uint256 newPrice) public { \n\n        require( _exists(_id));\n        require( msg.sender != address(0));\n        token memory currentToken = allTokens[_id];\n        require(currentToken.currentOwner == msg.sender);\n        currentToken.price = newPrice; \n        allTokens[_id] = currentToken;\n\n    }\n\n    function setSaleSaleState (uint256 _id , bool sale) public { \n\n        require( _exists(_id));\n        require( msg.sender != address(0));\n        token memory currentToken = allTokens[_id];\n        require(currentToken.currentOwner == msg.sender);\n        currentToken.forSale = sale; \n        allTokens[_id] = currentToken;\n\n    } \n\n    function buyToken(uint256 _id) public payable{\n        require(msg.sender != address(0));\n        require(_exists(_id));\n        token memory currentToken = allTokens[_id];\n        require(msg.sender != currentToken.currentOwner);\n\n        require(msg.value >= currentToken.price);\n\n        require(currentToken.forSale);\n\n        _transfer(currentToken.currentOwner, msg.sender, _id); \n\n        address payable sendTo = currentToken.currentOwner; \n\n        sendTo.transfer(msg.value); \n\n        currentToken.previousOwner = currentToken.currentOwner; \n        currentToken.currentOwner = msg.sender; \n        \n        allTokens[_id] = currentToken;\n\n\n    }\n \n\n\n\n}",
  "sourcePath": "/home/adel/Documents/uni/master/candb/nft_marketplace/contracts/ArtToken.sol",
  "compiler": {
    "name": "solc",
    "version": "0.6.2+commit.bacdbe57.Emscripten.clang"
  },
  "schemaVersion": "3.4.4",
  "updatedAt": "2022-01-28T18:04:08.275Z",
  "networkType": "ethereum",
  "devdoc": {
    "methods": {
      "approve(address,uint256)": {
        "details": "See {IERC721-approve}."
      },
      "balanceOf(address)": {
        "details": "See {IERC721-balanceOf}."
      },
      "baseURI()": {
        "details": "Returns the base URI set via {_setBaseURI}. This will be automatically added as a prefix in {tokenURI} to each token's URI, or to the token ID if no specific URI is set for that token ID."
      },
      "getApproved(uint256)": {
        "details": "See {IERC721-getApproved}."
      },
      "isApprovedForAll(address,address)": {
        "details": "See {IERC721-isApprovedForAll}."
      },
      "name()": {
        "details": "See {IERC721Metadata-name}."
      },
      "ownerOf(uint256)": {
        "details": "See {IERC721-ownerOf}."
      },
      "safeTransferFrom(address,address,uint256)": {
        "details": "See {IERC721-safeTransferFrom}."
      },
      "safeTransferFrom(address,address,uint256,bytes)": {
        "details": "See {IERC721-safeTransferFrom}."
      },
      "setApprovalForAll(address,bool)": {
        "details": "See {IERC721-setApprovalForAll}."
      },
      "supportsInterface(bytes4)": {
        "details": "See {IERC165-supportsInterface}.     * Time complexity O(1), guaranteed to always use less than 30 000 gas."
      },
      "symbol()": {
        "details": "See {IERC721Metadata-symbol}."
      },
      "tokenByIndex(uint256)": {
        "details": "See {IERC721Enumerable-tokenByIndex}."
      },
      "tokenOfOwnerByIndex(address,uint256)": {
        "details": "See {IERC721Enumerable-tokenOfOwnerByIndex}."
      },
      "tokenURI(uint256)": {
        "details": "See {IERC721Metadata-tokenURI}."
      },
      "totalSupply()": {
        "details": "See {IERC721Enumerable-totalSupply}."
      },
      "transferFrom(address,address,uint256)": {
        "details": "See {IERC721-transferFrom}."
      }
    }
  },
  "userdoc": {
    "methods": {}
  }
}